{
  "contractName": "ERC721",
  "abi": [
    {
      "anonymous": false,
      "inputs": [
        {
          "indexed": true,
          "internalType": "address",
          "name": "from",
          "type": "address"
        },
        {
          "indexed": true,
          "internalType": "address",
          "name": "to",
          "type": "address"
        },
        {
          "indexed": true,
          "internalType": "uint256",
          "name": "tokenId",
          "type": "uint256"
        }
      ],
      "name": "Transfer",
      "type": "event"
    },
    {
      "inputs": [
        {
          "internalType": "address",
          "name": "_owner",
          "type": "address"
        }
      ],
      "name": "balanceOf",
      "outputs": [
        {
          "internalType": "uint256",
          "name": "",
          "type": "uint256"
        }
      ],
      "stateMutability": "view",
      "type": "function"
    },
    {
      "inputs": [
        {
          "internalType": "uint256",
          "name": "_tokenId",
          "type": "uint256"
        }
      ],
      "name": "ownerOf",
      "outputs": [
        {
          "internalType": "address",
          "name": "",
          "type": "address"
        }
      ],
      "stateMutability": "view",
      "type": "function"
    }
  ],
  "bytecode": "0x608060405234801561001057600080fd5b506104b6806100206000396000f3fe608060405234801561001057600080fd5b50600436106100365760003560e01c80636352211e1461003b57806370a082311461006b575b600080fd5b6100556004803603810190610050919061023f565b61009b565b60405161006291906102ad565b60405180910390f35b610085600480360381019061008091906102f4565b61014c565b6040516100929190610330565b60405180910390f35b60008060008084815260200190815260200160002060009054906101000a900473ffffffffffffffffffffffffffffffffffffffff169050600073ffffffffffffffffffffffffffffffffffffffff168173ffffffffffffffffffffffffffffffffffffffff161415610143576040517f08c379a000000000000000000000000000000000000000000000000000000000815260040161013a906103ce565b60405180910390fd5b80915050919050565b60008073ffffffffffffffffffffffffffffffffffffffff168273ffffffffffffffffffffffffffffffffffffffff1614156101bd576040517f08c379a00000000000000000000000000000000000000000000000000000000081526004016101b490610460565b60405180910390fd5b600160008373ffffffffffffffffffffffffffffffffffffffff1673ffffffffffffffffffffffffffffffffffffffff168152602001908152602001600020549050919050565b600080fd5b6000819050919050565b61021c81610209565b811461022757600080fd5b50565b60008135905061023981610213565b92915050565b60006020828403121561025557610254610204565b5b60006102638482850161022a565b91505092915050565b600073ffffffffffffffffffffffffffffffffffffffff82169050919050565b60006102978261026c565b9050919050565b6102a78161028c565b82525050565b60006020820190506102c2600083018461029e565b92915050565b6102d18161028c565b81146102dc57600080fd5b50565b6000813590506102ee816102c8565b92915050565b60006020828403121561030a57610309610204565b5b6000610318848285016102df565b91505092915050565b61032a81610209565b82525050565b60006020820190506103456000830184610321565b92915050565b600082825260208201905092915050565b7f4552433732313a206f776e657220717565727920666f72206e6f6e657869737460008201527f656e7420746f6b656e0000000000000000000000000000000000000000000000602082015250565b60006103b860298361034b565b91506103c38261035c565b604082019050919050565b600060208201905081810360008301526103e7816103ab565b9050919050565b7f4552433732313a2062616c616e636520717565727920666f7220746865207a6560008201527f726f206164647265737300000000000000000000000000000000000000000000602082015250565b600061044a602a8361034b565b9150610455826103ee565b604082019050919050565b600060208201905081810360008301526104798161043d565b905091905056fea2646970667358221220de293a69ce4177120a4d2f4352e0b5860fd38842669ed0bbf15a174cb3b62ae464736f6c634300080a0033",
  "immutableReferences": {},
  "source": "// SPDX-License-Identifier: MIT\r\npragma solidity ^0.8.0;\r\n\r\ncontract ERC721 {\r\n    /*\r\n    0. buiding out minting function\r\n    a. NFT to point to an addtress\r\n    b. keep track of the token IDs\r\n    c. [DONE] MAPPING : keep track of token owners addresseds to token IDs\r\n    d. [DONE] MAPPING : how many tokens each address has\r\n    e. event the emits a transfer log - contract address, destination, ID\r\n    */\r\n\r\n    event Transfer( address indexed from, \r\n                    address indexed to, \r\n                    uint256 indexed tokenId);\r\n\r\n    // Tracking Map of TokenIds and Token owners\r\n    mapping(uint256 => address) private _tokenOwner;\r\n    mapping(address => uint256) private _ownTokenCount;\r\n\r\n    function _mint(address to, uint256 tokenId) internal virtual {\r\n        // Prevent from Mint to address 0\r\n        require(to != address(0), 'ERC721 minting to 0 address');\r\n        // Token must never be minted\r\n        require(!_exist(tokenId), 'ERC721 already minted');\r\n\r\n        _tokenOwner[tokenId] = to;\r\n        _ownTokenCount[to] += 1;\r\n\r\n        emit Transfer(address(0), to, tokenId);\r\n\r\n    }\r\n\r\n    //return truthiness of the owner of tokenId is not zero\r\n    function _exist(uint256 tokenId) internal view returns(bool){\r\n        address owner = _tokenOwner[tokenId];\r\n        return owner != address(0); \r\n    }\r\n\r\n    function balanceOf(address _owner) public view returns (uint256){\r\n        require(_owner != address(0), \"ERC721: balance query for the zero address\");\r\n        return _ownTokenCount[_owner];\r\n    }\r\n\r\n    function ownerOf(uint256 _tokenId) external view returns (address){\r\n        address owner = _tokenOwner[_tokenId];\r\n        require(owner != address(0), \"ERC721: owner query for nonexistent token\");\r\n        return owner;\r\n\r\n    }\r\n\r\n}",
  "sourcePath": "C:\\Users\\Admin\\Documents\\GitHub\\nft-marketplace-starter-kit\\truffle\\src\\contracts\\ERC721.sol",
  "compiler": {
    "name": "solc",
    "version": "0.8.10+commit.fc410830.Emscripten.clang"
  },
  "schemaVersion": "3.4.3",
  "updatedAt": "2021-12-07T12:10:29.767Z",
  "devdoc": {
    "kind": "dev",
    "methods": {},
    "version": 1
  },
  "userdoc": {
    "kind": "user",
    "methods": {},
    "version": 1
  }
}