{
  "contractName": "ERC721Enumerable",
  "abi": [
    {
      "inputs": [],
      "stateMutability": "nonpayable",
      "type": "constructor"
    },
    {
      "anonymous": false,
      "inputs": [
        {
          "indexed": true,
          "internalType": "address",
          "name": "_owner",
          "type": "address"
        },
        {
          "indexed": true,
          "internalType": "address",
          "name": "_approved",
          "type": "address"
        },
        {
          "indexed": true,
          "internalType": "uint256",
          "name": "_tokenId",
          "type": "uint256"
        }
      ],
      "name": "Approval",
      "type": "event"
    },
    {
      "anonymous": false,
      "inputs": [
        {
          "indexed": true,
          "internalType": "address",
          "name": "_owner",
          "type": "address"
        },
        {
          "indexed": true,
          "internalType": "address",
          "name": "_operator",
          "type": "address"
        },
        {
          "indexed": false,
          "internalType": "bool",
          "name": "_approved",
          "type": "bool"
        }
      ],
      "name": "ApprovalForAll",
      "type": "event"
    },
    {
      "anonymous": false,
      "inputs": [
        {
          "indexed": true,
          "internalType": "address",
          "name": "_from",
          "type": "address"
        },
        {
          "indexed": true,
          "internalType": "address",
          "name": "_to",
          "type": "address"
        },
        {
          "indexed": true,
          "internalType": "uint256",
          "name": "_tokenId",
          "type": "uint256"
        }
      ],
      "name": "Transfer",
      "type": "event"
    },
    {
      "inputs": [
        {
          "internalType": "address",
          "name": "to",
          "type": "address"
        },
        {
          "internalType": "uint256",
          "name": "tokenId",
          "type": "uint256"
        }
      ],
      "name": "approve",
      "outputs": [],
      "stateMutability": "nonpayable",
      "type": "function"
    },
    {
      "inputs": [
        {
          "internalType": "address",
          "name": "_owner",
          "type": "address"
        }
      ],
      "name": "balanceOf",
      "outputs": [
        {
          "internalType": "uint256",
          "name": "",
          "type": "uint256"
        }
      ],
      "stateMutability": "view",
      "type": "function"
    },
    {
      "inputs": [
        {
          "internalType": "uint256",
          "name": "tokenId",
          "type": "uint256"
        }
      ],
      "name": "getApproved",
      "outputs": [
        {
          "internalType": "address",
          "name": "",
          "type": "address"
        }
      ],
      "stateMutability": "view",
      "type": "function"
    },
    {
      "inputs": [
        {
          "internalType": "address",
          "name": "owner",
          "type": "address"
        },
        {
          "internalType": "address",
          "name": "operator",
          "type": "address"
        }
      ],
      "name": "isApprovedForAll",
      "outputs": [
        {
          "internalType": "bool",
          "name": "",
          "type": "bool"
        }
      ],
      "stateMutability": "view",
      "type": "function"
    },
    {
      "inputs": [
        {
          "internalType": "uint256",
          "name": "_tokenId",
          "type": "uint256"
        }
      ],
      "name": "ownerOf",
      "outputs": [
        {
          "internalType": "address",
          "name": "",
          "type": "address"
        }
      ],
      "stateMutability": "view",
      "type": "function"
    },
    {
      "inputs": [
        {
          "internalType": "address",
          "name": "from",
          "type": "address"
        },
        {
          "internalType": "address",
          "name": "to",
          "type": "address"
        },
        {
          "internalType": "uint256",
          "name": "tokenId",
          "type": "uint256"
        }
      ],
      "name": "safeTransferFrom",
      "outputs": [],
      "stateMutability": "nonpayable",
      "type": "function"
    },
    {
      "inputs": [
        {
          "internalType": "address",
          "name": "from",
          "type": "address"
        },
        {
          "internalType": "address",
          "name": "to",
          "type": "address"
        },
        {
          "internalType": "uint256",
          "name": "tokenId",
          "type": "uint256"
        },
        {
          "internalType": "bytes",
          "name": "_data",
          "type": "bytes"
        }
      ],
      "name": "safeTransferFrom",
      "outputs": [],
      "stateMutability": "nonpayable",
      "type": "function"
    },
    {
      "inputs": [
        {
          "internalType": "address",
          "name": "operator",
          "type": "address"
        },
        {
          "internalType": "bool",
          "name": "approved",
          "type": "bool"
        }
      ],
      "name": "setApprovalForAll",
      "outputs": [],
      "stateMutability": "nonpayable",
      "type": "function"
    },
    {
      "inputs": [
        {
          "internalType": "bytes4",
          "name": "interfaceId",
          "type": "bytes4"
        }
      ],
      "name": "supportsInterface",
      "outputs": [
        {
          "internalType": "bool",
          "name": "",
          "type": "bool"
        }
      ],
      "stateMutability": "view",
      "type": "function"
    },
    {
      "inputs": [
        {
          "internalType": "address",
          "name": "from",
          "type": "address"
        },
        {
          "internalType": "address",
          "name": "to",
          "type": "address"
        },
        {
          "internalType": "uint256",
          "name": "tokenId",
          "type": "uint256"
        }
      ],
      "name": "transferFrom",
      "outputs": [],
      "stateMutability": "nonpayable",
      "type": "function"
    },
    {
      "inputs": [],
      "name": "totalSupply",
      "outputs": [
        {
          "internalType": "uint256",
          "name": "",
          "type": "uint256"
        }
      ],
      "stateMutability": "view",
      "type": "function"
    },
    {
      "inputs": [
        {
          "internalType": "uint256",
          "name": "_index",
          "type": "uint256"
        }
      ],
      "name": "tokenByIndex",
      "outputs": [
        {
          "internalType": "uint256",
          "name": "",
          "type": "uint256"
        }
      ],
      "stateMutability": "view",
      "type": "function"
    },
    {
      "inputs": [
        {
          "internalType": "address",
          "name": "_owner",
          "type": "address"
        },
        {
          "internalType": "uint256",
          "name": "_index",
          "type": "uint256"
        }
      ],
      "name": "tokenOfOwnerByIndex",
      "outputs": [
        {
          "internalType": "uint256",
          "name": "",
          "type": "uint256"
        }
      ],
      "stateMutability": "view",
      "type": "function"
    }
  ],
  "bytecode": "0x60806040523480156200001157600080fd5b50620000437f01ffc9a7a5cef8baa21ed3c5c0d7e23accb804b619e9333b597f47a0d84076e2620001df60201b60201c565b620001647f1cf138a85b0e62e7e98a8302d9c9eb9460c8ba52e5da3c28daff2b626089dd8d807fe0c9b09697cad3aa3f2bcb7fdd781becaefa478990b24e83d3bfdb65623d77537f5af227006b8981efabb10af200ab71f08976cbce54b4c59ae5c97811d19a398c7f90dba0bef8387ab29f95a1abead857c8ccc338f1038f6fa159fa78fd18aff9f77f8c51fd5fcf1f456ec4eb0f32f68d83471264fe082fac12bcbfd2fa4be9eed6c77f22c82707ba960a14c7592ffb6b8cfaa073fed0048a84cc7fa41f6b5bd8e7f2e47f3a6eb71757dfc6e784c1459d26270140c2c147d95ca985c80026fc5301c3eca17f8a7e378434598edc36d108689a030cbc9d7d465de4f74c71bae1028eed6a881b1818181818181818620001df60201b60201c565b620001d97f8230223f691b981717299fae9549350a0d894555723531f02108b1f522c1a7977f6da5e1284143cdd2d15038a59bde3be031250f00291d64494c12d967b3a4e0c37fc53637662700e6c65104059db8bba34439e0c32483ab7c34e3ccae52c73954951818620001df60201b60201c565b6200033a565b63ffffffff60e01b817bffffffffffffffffffffffffffffffffffffffffffffffffffffffff191614156200024b576040517f08c379a0000000000000000000000000000000000000000000000000000000008152600401620002429062000318565b60405180910390fd5b6001600080837bffffffffffffffffffffffffffffffffffffffffffffffffffffffff19167bffffffffffffffffffffffffffffffffffffffffffffffffffffffff1916815260200190815260200160002060006101000a81548160ff02191690831515021790555050565b600082825260208201905092915050565b7f4552433136353a20496e76616c696420496e7465726661636500000000000000600082015250565b600062000300601983620002b7565b91506200030d82620002c8565b602082019050919050565b600060208201905081810360008301526200033381620002f1565b9050919050565b611ee0806200034a6000396000f3fe608060405234801561001057600080fd5b50600436106100cf5760003560e01c806342842e0e1161008c57806370a082311161006657806370a0823114610236578063a22cb46514610266578063b88d4fde14610282578063e985e9c51461029e576100cf565b806342842e0e146101ba5780634f6ccce7146101d65780636352211e14610206576100cf565b806301ffc9a7146100d4578063081812fc14610104578063095ea7b31461013457806318160ddd1461015057806323b872dd1461016e5780632f745c591461018a575b600080fd5b6100ee60048036038101906100e991906110f6565b6102ce565b6040516100fb919061113e565b60405180910390f35b61011e6004803603810190610119919061118f565b610335565b60405161012b91906111fd565b60405180910390f35b61014e60048036038101906101499190611244565b6103ba565b005b6101586104c4565b6040516101659190611293565b60405180910390f35b610188600480360381019061018391906112ae565b6104d1565b005b6101a4600480360381019061019f9190611244565b61052a565b6040516101b19190611293565b60405180910390f35b6101d460048036038101906101cf91906112ae565b6105da565b005b6101f060048036038101906101eb919061118f565b6105fa565b6040516101fd9190611293565b60405180910390f35b610220600480360381019061021b919061118f565b61066b565b60405161022d91906111fd565b60405180910390f35b610250600480360381019061024b9190611301565b61071d565b60405161025d9190611293565b60405180910390f35b610280600480360381019061027b919061135a565b6107d5565b005b61029c600480360381019061029791906114e0565b610941565b005b6102b860048036038101906102b39190611563565b61099c565b6040516102c5919061113e565b60405180910390f35b6000806000837bffffffffffffffffffffffffffffffffffffffffffffffffffffffff19167bffffffffffffffffffffffffffffffffffffffffffffffffffffffff1916815260200190815260200160002060009054906101000a900460ff169050919050565b600061034082610a30565b61037f576040517f08c379a000000000000000000000000000000000000000000000000000000000815260040161037690611626565b60405180910390fd5b6003600083815260200190815260200160002060009054906101000a900473ffffffffffffffffffffffffffffffffffffffff169050919050565b60006103c58261066b565b90508073ffffffffffffffffffffffffffffffffffffffff168373ffffffffffffffffffffffffffffffffffffffff161415610436576040517f08c379a000000000000000000000000000000000000000000000000000000000815260040161042d906116b8565b60405180910390fd5b8073ffffffffffffffffffffffffffffffffffffffff163373ffffffffffffffffffffffffffffffffffffffff1614806104765750610475813361099c565b5b6104b5576040517f08c379a00000000000000000000000000000000000000000000000000000000081526004016104ac9061174a565b60405180910390fd5b6104bf8383610aa2565b505050565b6000600580549050905090565b6104db3382610b5b565b61051a576040517f08c379a0000000000000000000000000000000000000000000000000000000008152600401610511906117dc565b60405180910390fd5b610525838383610c39565b505050565b60006105358361071d565b8210610576576040517f08c379a000000000000000000000000000000000000000000000000000000000815260040161056d90611848565b60405180910390fd5b600760008473ffffffffffffffffffffffffffffffffffffffff1673ffffffffffffffffffffffffffffffffffffffff16815260200190815260200160002082815481106105c7576105c6611868565b5b9060005260206000200154905092915050565b6105f583838360405180602001604052806000815250610941565b505050565b60006106046104c4565b8210610645576040517f08c379a000000000000000000000000000000000000000000000000000000000815260040161063c906118e3565b60405180910390fd5b6005828154811061065957610658611868565b5b90600052602060002001549050919050565b6000806001600084815260200190815260200160002060009054906101000a900473ffffffffffffffffffffffffffffffffffffffff169050600073ffffffffffffffffffffffffffffffffffffffff168173ffffffffffffffffffffffffffffffffffffffff161415610714576040517f08c379a000000000000000000000000000000000000000000000000000000000815260040161070b90611975565b60405180910390fd5b80915050919050565b60008073ffffffffffffffffffffffffffffffffffffffff168273ffffffffffffffffffffffffffffffffffffffff16141561078e576040517f08c379a000000000000000000000000000000000000000000000000000000000815260040161078590611a07565b60405180910390fd5b600260008373ffffffffffffffffffffffffffffffffffffffff1673ffffffffffffffffffffffffffffffffffffffff168152602001908152602001600020549050919050565b3373ffffffffffffffffffffffffffffffffffffffff168273ffffffffffffffffffffffffffffffffffffffff161415610844576040517f08c379a000000000000000000000000000000000000000000000000000000000815260040161083b90611a73565b60405180910390fd5b80600460003373ffffffffffffffffffffffffffffffffffffffff1673ffffffffffffffffffffffffffffffffffffffff16815260200190815260200160002060008473ffffffffffffffffffffffffffffffffffffffff1673ffffffffffffffffffffffffffffffffffffffff16815260200190815260200160002060006101000a81548160ff0219169083151502179055508173ffffffffffffffffffffffffffffffffffffffff163373ffffffffffffffffffffffffffffffffffffffff167f17307eab39ab6107e8899845ad3d59bd9653f200f220920489ca2b5937696c3183604051610935919061113e565b60405180910390a35050565b61094b3383610b5b565b61098a576040517f08c379a0000000000000000000000000000000000000000000000000000000008152600401610981906117dc565b60405180910390fd5b61099684848484610e95565b50505050565b6000600460008473ffffffffffffffffffffffffffffffffffffffff1673ffffffffffffffffffffffffffffffffffffffff16815260200190815260200160002060008373ffffffffffffffffffffffffffffffffffffffff1673ffffffffffffffffffffffffffffffffffffffff16815260200190815260200160002060009054906101000a900460ff16905092915050565b6000806001600084815260200190815260200160002060009054906101000a900473ffffffffffffffffffffffffffffffffffffffff169050600073ffffffffffffffffffffffffffffffffffffffff168173ffffffffffffffffffffffffffffffffffffffff161415915050919050565b816003600083815260200190815260200160002060006101000a81548173ffffffffffffffffffffffffffffffffffffffff021916908373ffffffffffffffffffffffffffffffffffffffff160217905550808273ffffffffffffffffffffffffffffffffffffffff16610b158361066b565b73ffffffffffffffffffffffffffffffffffffffff167f8c5be1e5ebec7d5bd14f71427d1e84f3dd0314c0f7b2291e5b200ac8c7c3b92560405160405180910390a45050565b6000610b6682610a30565b610ba5576040517f08c379a0000000000000000000000000000000000000000000000000000000008152600401610b9c90611b05565b60405180910390fd5b6000610bb08361066b565b90508073ffffffffffffffffffffffffffffffffffffffff168473ffffffffffffffffffffffffffffffffffffffff161480610c1f57508373ffffffffffffffffffffffffffffffffffffffff16610c0784610335565b73ffffffffffffffffffffffffffffffffffffffff16145b80610c305750610c2f818561099c565b5b91505092915050565b8273ffffffffffffffffffffffffffffffffffffffff16610c598261066b565b73ffffffffffffffffffffffffffffffffffffffff1614610caf576040517f08c379a0000000000000000000000000000000000000000000000000000000008152600401610ca690611b97565b60405180910390fd5b600073ffffffffffffffffffffffffffffffffffffffff168273ffffffffffffffffffffffffffffffffffffffff161415610d1f576040517f08c379a0000000000000000000000000000000000000000000000000000000008152600401610d1690611c29565b60405180910390fd5b610d2a838383610ef1565b610d35600082610aa2565b6001600260008573ffffffffffffffffffffffffffffffffffffffff1673ffffffffffffffffffffffffffffffffffffffff1681526020019081526020016000206000828254610d859190611c78565b925050819055506001600260008473ffffffffffffffffffffffffffffffffffffffff1673ffffffffffffffffffffffffffffffffffffffff1681526020019081526020016000206000828254610ddc9190611cac565b92505081905550816001600083815260200190815260200160002060006101000a81548173ffffffffffffffffffffffffffffffffffffffff021916908373ffffffffffffffffffffffffffffffffffffffff160217905550808273ffffffffffffffffffffffffffffffffffffffff168473ffffffffffffffffffffffffffffffffffffffff167fddf252ad1be2c89b69c2b068fc378daa952ba7f163c4a11628f55a4df523b3ef60405160405180910390a4505050565b610ea0848484610c39565b610eac84848484610ef6565b610eeb576040517f08c379a0000000000000000000000000000000000000000000000000000000008152600401610ee290611d74565b60405180910390fd5b50505050565b505050565b6000610f178473ffffffffffffffffffffffffffffffffffffffff16611077565b1561106a578373ffffffffffffffffffffffffffffffffffffffff1663150b7a02338786866040518563ffffffff1660e01b8152600401610f5b9493929190611e1c565b6020604051808303816000875af1925050508015610f9757506040513d601f19601f82011682018060405250810190610f949190611e7d565b60015b61101a573d8060008114610fc7576040519150601f19603f3d011682016040523d82523d6000602084013e610fcc565b606091505b50600081511415611012576040517f08c379a000000000000000000000000000000000000000000000000000000000815260040161100990611d74565b60405180910390fd5b805181602001fd5b63150b7a0260e01b7bffffffffffffffffffffffffffffffffffffffffffffffffffffffff1916817bffffffffffffffffffffffffffffffffffffffffffffffffffffffff19161491505061106f565b600190505b949350505050565b600080823b905060008111915050919050565b6000604051905090565b600080fd5b600080fd5b60007fffffffff0000000000000000000000000000000000000000000000000000000082169050919050565b6110d38161109e565b81146110de57600080fd5b50565b6000813590506110f0816110ca565b92915050565b60006020828403121561110c5761110b611094565b5b600061111a848285016110e1565b91505092915050565b60008115159050919050565b61113881611123565b82525050565b6000602082019050611153600083018461112f565b92915050565b6000819050919050565b61116c81611159565b811461117757600080fd5b50565b60008135905061118981611163565b92915050565b6000602082840312156111a5576111a4611094565b5b60006111b38482850161117a565b91505092915050565b600073ffffffffffffffffffffffffffffffffffffffff82169050919050565b60006111e7826111bc565b9050919050565b6111f7816111dc565b82525050565b600060208201905061121260008301846111ee565b92915050565b611221816111dc565b811461122c57600080fd5b50565b60008135905061123e81611218565b92915050565b6000806040838503121561125b5761125a611094565b5b60006112698582860161122f565b925050602061127a8582860161117a565b9150509250929050565b61128d81611159565b82525050565b60006020820190506112a86000830184611284565b92915050565b6000806000606084860312156112c7576112c6611094565b5b60006112d58682870161122f565b93505060206112e68682870161122f565b92505060406112f78682870161117a565b9150509250925092565b60006020828403121561131757611316611094565b5b60006113258482850161122f565b91505092915050565b61133781611123565b811461134257600080fd5b50565b6000813590506113548161132e565b92915050565b6000806040838503121561137157611370611094565b5b600061137f8582860161122f565b925050602061139085828601611345565b9150509250929050565b600080fd5b600080fd5b6000601f19601f8301169050919050565b7f4e487b7100000000000000000000000000000000000000000000000000000000600052604160045260246000fd5b6113ed826113a4565b810181811067ffffffffffffffff8211171561140c5761140b6113b5565b5b80604052505050565b600061141f61108a565b905061142b82826113e4565b919050565b600067ffffffffffffffff82111561144b5761144a6113b5565b5b611454826113a4565b9050602081019050919050565b82818337600083830152505050565b600061148361147e84611430565b611415565b90508281526020810184848401111561149f5761149e61139f565b5b6114aa848285611461565b509392505050565b600082601f8301126114c7576114c661139a565b5b81356114d7848260208601611470565b91505092915050565b600080600080608085870312156114fa576114f9611094565b5b60006115088782880161122f565b94505060206115198782880161122f565b935050604061152a8782880161117a565b925050606085013567ffffffffffffffff81111561154b5761154a611099565b5b611557878288016114b2565b91505092959194509250565b6000806040838503121561157a57611579611094565b5b60006115888582860161122f565b92505060206115998582860161122f565b9150509250929050565b600082825260208201905092915050565b7f4552433732313a20617070726f76656420717565727920666f72206e6f6e657860008201527f697374656e7420746f6b656e0000000000000000000000000000000000000000602082015250565b6000611610602c836115a3565b915061161b826115b4565b604082019050919050565b6000602082019050818103600083015261163f81611603565b9050919050565b7f4552433732313a20617070726f76616c20746f2063757272656e74206f776e6560008201527f7200000000000000000000000000000000000000000000000000000000000000602082015250565b60006116a26021836115a3565b91506116ad82611646565b604082019050919050565b600060208201905081810360008301526116d181611695565b9050919050565b7f4552433732313a20617070726f76652063616c6c6572206973206e6f74206f7760008201527f6e6572206e6f7220617070726f76656420666f7220616c6c0000000000000000602082015250565b60006117346038836115a3565b915061173f826116d8565b604082019050919050565b6000602082019050818103600083015261176381611727565b9050919050565b7f4552433732313a207472616e736665722063616c6c6572206973206e6f74206f60008201527f776e6572206e6f7220617070726f766564000000000000000000000000000000602082015250565b60006117c66031836115a3565b91506117d18261176a565b604082019050919050565b600060208201905081810360008301526117f5816117b9565b9050919050565b7f676c6f62616c20696e646578206973206f7574206f6620626f756e6400000000600082015250565b6000611832601c836115a3565b915061183d826117fc565b602082019050919050565b6000602082019050818103600083015261186181611825565b9050919050565b7f4e487b7100000000000000000000000000000000000000000000000000000000600052603260045260246000fd5b7f476c6f62616c20696e646578206973206f7574206f6620626f756e6400000000600082015250565b60006118cd601c836115a3565b91506118d882611897565b602082019050919050565b600060208201905081810360008301526118fc816118c0565b9050919050565b7f4552433732313a206f776e657220717565727920666f72206e6f6e657869737460008201527f656e7420746f6b656e0000000000000000000000000000000000000000000000602082015250565b600061195f6029836115a3565b915061196a82611903565b604082019050919050565b6000602082019050818103600083015261198e81611952565b9050919050565b7f4552433732313a2062616c616e636520717565727920666f7220746865207a6560008201527f726f206164647265737300000000000000000000000000000000000000000000602082015250565b60006119f1602a836115a3565b91506119fc82611995565b604082019050919050565b60006020820190508181036000830152611a20816119e4565b9050919050565b7f4552433732313a20617070726f766520746f2063616c6c657200000000000000600082015250565b6000611a5d6019836115a3565b9150611a6882611a27565b602082019050919050565b60006020820190508181036000830152611a8c81611a50565b9050919050565b7f4552433732313a206f70657261746f7220717565727920666f72206e6f6e657860008201527f697374656e7420746f6b656e0000000000000000000000000000000000000000602082015250565b6000611aef602c836115a3565b9150611afa82611a93565b604082019050919050565b60006020820190508181036000830152611b1e81611ae2565b9050919050565b7f4552433732313a207472616e73666572206f6620746f6b656e2074686174206960008201527f73206e6f74206f776e0000000000000000000000000000000000000000000000602082015250565b6000611b816029836115a3565b9150611b8c82611b25565b604082019050919050565b60006020820190508181036000830152611bb081611b74565b9050919050565b7f4552433732313a207472616e7366657220746f20746865207a65726f2061646460008201527f7265737300000000000000000000000000000000000000000000000000000000602082015250565b6000611c136024836115a3565b9150611c1e82611bb7565b604082019050919050565b60006020820190508181036000830152611c4281611c06565b9050919050565b7f4e487b7100000000000000000000000000000000000000000000000000000000600052601160045260246000fd5b6000611c8382611159565b9150611c8e83611159565b925082821015611ca157611ca0611c49565b5b828203905092915050565b6000611cb782611159565b9150611cc283611159565b9250827fffffffffffffffffffffffffffffffffffffffffffffffffffffffffffffffff03821115611cf757611cf6611c49565b5b828201905092915050565b7f4552433732313a207472616e7366657220746f206e6f6e20455243373231526560008201527f63656976657220696d706c656d656e7465720000000000000000000000000000602082015250565b6000611d5e6032836115a3565b9150611d6982611d02565b604082019050919050565b60006020820190508181036000830152611d8d81611d51565b9050919050565b600081519050919050565b600082825260208201905092915050565b60005b83811015611dce578082015181840152602081019050611db3565b83811115611ddd576000848401525b50505050565b6000611dee82611d94565b611df88185611d9f565b9350611e08818560208601611db0565b611e11816113a4565b840191505092915050565b6000608082019050611e3160008301876111ee565b611e3e60208301866111ee565b611e4b6040830185611284565b8181036060830152611e5d8184611de3565b905095945050505050565b600081519050611e77816110ca565b92915050565b600060208284031215611e9357611e92611094565b5b6000611ea184828501611e68565b9150509291505056fea26469706673582212201822a061462eb93497edef150be53b6f51220fc84db2ae473e8e9a74fccf66d064736f6c634300080a0033",
  "immutableReferences": {},
  "source": "// SPDX-License-Identifier: MIT\r\npragma solidity ^0.8.0;\r\n\r\nimport './ERC721.sol';\r\nimport \"./interfaces/IERC721Enumerable.sol\";\r\n\r\ncontract ERC721Enumerable is ERC721, IERC721Enumerable {\r\n\r\n    uint256[] private _allTokens;\r\n\r\n    //Create Tracking Variable\r\n    //mapping from tokenId => index-in _allTokens array\r\n    mapping(uint256 => uint256) private _allTokenIndex;\r\n\r\n    //mapping of Owner => List of all owner token ids\r\n    mapping(address => uint256[]) private _ownedTokens;\r\n\r\n    //mappting from tokenId => Owner-Token-index of the owner tokens list\r\n    mapping(uint256 => uint256) private _ownedTokenIndex;\r\n\r\n    //----------------------------------------------------------------------------------- Standard Function\r\n    constructor(){\r\n        _registerInterface(bytes4(\r\n            keccak256('totalSupply(bytes4)')^\r\n            keccak256('tokenByIndex(bytes4)')^\r\n            keccak256('tokenOfOwnerByIndex(bytes4)')\r\n        ));\r\n    }\r\n\r\n    //return total supply of the _allToken Array\r\n    function totalSupply() public override view returns (uint256){\r\n        return _allTokens.length;\r\n    }\r\n    \r\n    function tokenByIndex(uint256 _index) public override  view returns (uint256){\r\n        //the index is not out of bound\r\n        require(_index < totalSupply(), 'Global index is out of bound');\r\n        return _allTokens[_index];\r\n    }\r\n\r\n    function tokenOfOwnerByIndex(address _owner, uint256 _index) public override view returns (uint256){\r\n        //The index is not out of bound\r\n        require(_index < balanceOf(_owner), 'global index is out of bound');\r\n        return _ownedTokens[_owner][_index];\r\n    }\r\n    \r\n    //----------------------------------------------------------------------------------- Helper Function\r\n\r\n    // Override Function from ERC721.sol\r\n    function _mint(address to, uint256 tokenId) internal override (ERC721) {\r\n        super._mint(to, tokenId); \r\n        _addTokenToAllTokenEnumeration(tokenId);\r\n        _addTokenToOwnerEnumeration(to, tokenId);\r\n    }\r\n    function _addTokenToOwnerEnumeration(address to, uint256 tokenId) private {\r\n        _ownedTokenIndex[tokenId] = _ownedTokens[to].length;\r\n        _ownedTokens[to].push(tokenId);\r\n    }\r\n\r\n    //add tokens to the _alltokens array and set the position of the token index\r\n    function _addTokenToAllTokenEnumeration(uint256 tokenId) private {\r\n        _allTokenIndex[tokenId] = _allTokens.length;\r\n        _allTokens.push(tokenId);\r\n    }\r\n\r\n\r\n}",
  "sourcePath": "C:\\Users\\Admin\\Documents\\GitHub\\nft-marketplace-starter-kit\\truffle\\src\\contracts\\ERC721Enumerable.sol",
  "compiler": {
    "name": "solc",
    "version": "0.8.10+commit.fc410830.Emscripten.clang"
  },
  "schemaVersion": "3.4.3",
  "updatedAt": "2021-12-08T14:00:53.742Z",
  "devdoc": {
    "kind": "dev",
    "methods": {
      "safeTransferFrom(address,address,uint256,bytes)": {
        "details": "See {IERC721-safeTransferFrom}."
      },
      "supportsInterface(bytes4)": {
        "details": "Returns true if this contract implements the interface defined by `interfaceId`. See the corresponding https://eips.ethereum.org/EIPS/eip-165#how-interfaces-are-identified[EIP section] to learn more about how these ids are created. This function call must use less than 30 000 gas."
      }
    },
    "version": 1
  },
  "userdoc": {
    "kind": "user",
    "methods": {},
    "version": 1
  }
}