{
  "contractName": "KryptoBirdz",
  "abi": [
    {
      "inputs": [],
      "stateMutability": "nonpayable",
      "type": "constructor"
    },
    {
      "anonymous": false,
      "inputs": [
        {
          "indexed": true,
          "internalType": "address",
          "name": "from",
          "type": "address"
        },
        {
          "indexed": true,
          "internalType": "address",
          "name": "to",
          "type": "address"
        },
        {
          "indexed": true,
          "internalType": "uint256",
          "name": "tokenId",
          "type": "uint256"
        }
      ],
      "name": "Transfer",
      "type": "event"
    },
    {
      "inputs": [
        {
          "internalType": "address",
          "name": "_owner",
          "type": "address"
        }
      ],
      "name": "balanceOf",
      "outputs": [
        {
          "internalType": "uint256",
          "name": "",
          "type": "uint256"
        }
      ],
      "stateMutability": "view",
      "type": "function",
      "constant": true
    },
    {
      "inputs": [
        {
          "internalType": "uint256",
          "name": "",
          "type": "uint256"
        }
      ],
      "name": "kryptoBird",
      "outputs": [
        {
          "internalType": "string",
          "name": "",
          "type": "string"
        }
      ],
      "stateMutability": "view",
      "type": "function",
      "constant": true
    },
    {
      "inputs": [],
      "name": "name",
      "outputs": [
        {
          "internalType": "string",
          "name": "",
          "type": "string"
        }
      ],
      "stateMutability": "view",
      "type": "function",
      "constant": true
    },
    {
      "inputs": [
        {
          "internalType": "uint256",
          "name": "_tokenId",
          "type": "uint256"
        }
      ],
      "name": "ownerOf",
      "outputs": [
        {
          "internalType": "address",
          "name": "",
          "type": "address"
        }
      ],
      "stateMutability": "view",
      "type": "function",
      "constant": true
    },
    {
      "inputs": [],
      "name": "symbol",
      "outputs": [
        {
          "internalType": "string",
          "name": "",
          "type": "string"
        }
      ],
      "stateMutability": "view",
      "type": "function",
      "constant": true
    },
    {
      "inputs": [
        {
          "internalType": "uint256",
          "name": "_index",
          "type": "uint256"
        }
      ],
      "name": "tokenByIndex",
      "outputs": [
        {
          "internalType": "uint256",
          "name": "",
          "type": "uint256"
        }
      ],
      "stateMutability": "view",
      "type": "function",
      "constant": true
    },
    {
      "inputs": [],
      "name": "tokenName",
      "outputs": [
        {
          "internalType": "string",
          "name": "",
          "type": "string"
        }
      ],
      "stateMutability": "view",
      "type": "function",
      "constant": true
    },
    {
      "inputs": [
        {
          "internalType": "address",
          "name": "_owner",
          "type": "address"
        },
        {
          "internalType": "uint256",
          "name": "_index",
          "type": "uint256"
        }
      ],
      "name": "tokenOfOwnerByIndex",
      "outputs": [
        {
          "internalType": "uint256",
          "name": "",
          "type": "uint256"
        }
      ],
      "stateMutability": "view",
      "type": "function",
      "constant": true
    },
    {
      "inputs": [],
      "name": "tokenSymbol",
      "outputs": [
        {
          "internalType": "string",
          "name": "",
          "type": "string"
        }
      ],
      "stateMutability": "view",
      "type": "function",
      "constant": true
    },
    {
      "inputs": [],
      "name": "totalSupply",
      "outputs": [
        {
          "internalType": "uint256",
          "name": "",
          "type": "uint256"
        }
      ],
      "stateMutability": "view",
      "type": "function",
      "constant": true
    },
    {
      "inputs": [
        {
          "internalType": "string",
          "name": "_kb",
          "type": "string"
        }
      ],
      "name": "mint",
      "outputs": [],
      "stateMutability": "nonpayable",
      "type": "function"
    }
  ],
  "bytecode": "0x60806040526040518060400160405280600b81526020017f4b727970746f426972647a000000000000000000000000000000000000000000815250600890805190602001906200005192919062000212565b506040518060400160405280600681526020017f4b424952445a0000000000000000000000000000000000000000000000000000815250600990805190602001906200009f92919062000212565b50348015620000ad57600080fd5b5060088054620000bd90620002f1565b80601f0160208091040260200160405190810160405280929190818152602001828054620000eb90620002f1565b80156200013c5780601f1062000110576101008083540402835291602001916200013c565b820191906000526020600020905b8154815290600101906020018083116200011e57829003601f168201915b5050505050600980546200015090620002f1565b80601f01602080910402602001604051908101604052809291908181526020018280546200017e90620002f1565b8015620001cf5780601f10620001a357610100808354040283529160200191620001cf565b820191906000526020600020905b815481529060010190602001808311620001b157829003601f168201915b505050505081818160009080519060200190620001ee92919062000212565b5080600190805190602001906200020792919062000212565b505050505062000327565b8280546200022090620002f1565b90600052602060002090601f01602090048101928262000244576000855562000290565b82601f106200025f57805160ff191683800117855562000290565b8280016001018555821562000290579182015b828111156200028f57825182559160200191906001019062000272565b5b5090506200029f9190620002a3565b5090565b5b80821115620002be576000816000905550600101620002a4565b5090565b7f4e487b7100000000000000000000000000000000000000000000000000000000600052602260045260246000fd5b600060028204905060018216806200030a57607f821691505b60208210811415620003215762000320620002c2565b5b50919050565b6115bd80620003376000396000f3fe608060405234801561001057600080fd5b50600436106100a95760003560e01c80636352211e116100715780636352211e1461017a5780636c02a931146101aa57806370a08231146101c85780637b61c320146101f857806395d89b4114610216578063d85d3d2714610234576100a9565b8063057e4ee6146100ae57806306fdde03146100de57806318160ddd146100fc5780632f745c591461011a5780634f6ccce71461014a575b600080fd5b6100c860048036038101906100c39190610d26565b610250565b6040516100d59190610dec565b60405180910390f35b6100e66102fc565b6040516100f39190610dec565b60405180910390f35b61010461038e565b6040516101119190610e1d565b60405180910390f35b610134600480360381019061012f9190610e96565b61039b565b6040516101419190610e1d565b60405180910390f35b610164600480360381019061015f9190610d26565b61044b565b6040516101719190610e1d565b60405180910390f35b610194600480360381019061018f9190610d26565b6104bc565b6040516101a19190610ee5565b60405180910390f35b6101b261056e565b6040516101bf9190610dec565b60405180910390f35b6101e260048036038101906101dd9190610f00565b6105fc565b6040516101ef9190610e1d565b60405180910390f35b6102006106b4565b60405161020d9190610dec565b60405180910390f35b61021e610742565b60405161022b9190610dec565b60405180910390f35b61024e60048036038101906102499190611062565b6107d4565b005b600a818154811061026057600080fd5b90600052602060002001600091509050805461027b906110da565b80601f01602080910402602001604051908101604052809291908181526020018280546102a7906110da565b80156102f45780601f106102c9576101008083540402835291602001916102f4565b820191906000526020600020905b8154815290600101906020018083116102d757829003601f168201915b505050505081565b60606000805461030b906110da565b80601f0160208091040260200160405190810160405280929190818152602001828054610337906110da565b80156103845780601f1061035957610100808354040283529160200191610384565b820191906000526020600020905b81548152906001019060200180831161036757829003601f168201915b5050505050905090565b6000600480549050905090565b60006103a6836105fc565b82106103e7576040517f08c379a00000000000000000000000000000000000000000000000000000000081526004016103de90611158565b60405180910390fd5b600660008473ffffffffffffffffffffffffffffffffffffffff1673ffffffffffffffffffffffffffffffffffffffff168152602001908152602001600020828154811061043857610437611178565b5b9060005260206000200154905092915050565b600061045561038e565b8210610496576040517f08c379a000000000000000000000000000000000000000000000000000000000815260040161048d906111f3565b60405180910390fd5b600482815481106104aa576104a9611178565b5b90600052602060002001549050919050565b6000806002600084815260200190815260200160002060009054906101000a900473ffffffffffffffffffffffffffffffffffffffff169050600073ffffffffffffffffffffffffffffffffffffffff168173ffffffffffffffffffffffffffffffffffffffff161415610565576040517f08c379a000000000000000000000000000000000000000000000000000000000815260040161055c90611285565b60405180910390fd5b80915050919050565b6008805461057b906110da565b80601f01602080910402602001604051908101604052809291908181526020018280546105a7906110da565b80156105f45780601f106105c9576101008083540402835291602001916105f4565b820191906000526020600020905b8154815290600101906020018083116105d757829003601f168201915b505050505081565b60008073ffffffffffffffffffffffffffffffffffffffff168273ffffffffffffffffffffffffffffffffffffffff16141561066d576040517f08c379a000000000000000000000000000000000000000000000000000000000815260040161066490611317565b60405180910390fd5b600360008373ffffffffffffffffffffffffffffffffffffffff1673ffffffffffffffffffffffffffffffffffffffff168152602001908152602001600020549050919050565b600980546106c1906110da565b80601f01602080910402602001604051908101604052809291908181526020018280546106ed906110da565b801561073a5780601f1061070f5761010080835404028352916020019161073a565b820191906000526020600020905b81548152906001019060200180831161071d57829003601f168201915b505050505081565b606060018054610751906110da565b80601f016020809104026020016040519081016040528092919081815260200182805461077d906110da565b80156107ca5780601f1061079f576101008083540402835291602001916107ca565b820191906000526020600020905b8154815290600101906020018083116107ad57829003601f168201915b5050505050905090565b600b816040516107e49190611373565b908152602001604051809103902060009054906101000a900460ff1615610840576040517f08c379a0000000000000000000000000000000000000000000000000000000008152600401610837906113d6565b60405180910390fd5b600a8190806001815401808255809150506001900390600052602060002001600090919091909150908051906020019061087b929190610c39565b5060006001600a805490506108909190611425565b905061089c33826108d7565b6001600b836040516108ae9190611373565b908152602001604051809103902060006101000a81548160ff0219169083151502179055505050565b6108e182826108f8565b6108ea81610aba565b6108f48282610b03565b5050565b600073ffffffffffffffffffffffffffffffffffffffff168273ffffffffffffffffffffffffffffffffffffffff161415610968576040517f08c379a000000000000000000000000000000000000000000000000000000000815260040161095f906114a5565b60405180910390fd5b61097181610bc7565b156109b1576040517f08c379a00000000000000000000000000000000000000000000000000000000081526004016109a890611511565b60405180910390fd5b816002600083815260200190815260200160002060006101000a81548173ffffffffffffffffffffffffffffffffffffffff021916908373ffffffffffffffffffffffffffffffffffffffff1602179055506001600360008473ffffffffffffffffffffffffffffffffffffffff1673ffffffffffffffffffffffffffffffffffffffff1681526020019081526020016000206000828254610a539190611531565b92505081905550808273ffffffffffffffffffffffffffffffffffffffff16600073ffffffffffffffffffffffffffffffffffffffff167fddf252ad1be2c89b69c2b068fc378daa952ba7f163c4a11628f55a4df523b3ef60405160405180910390a45050565b6004805490506005600083815260200190815260200160002081905550600481908060018154018082558091505060019003906000526020600020016000909190919091505550565b600660008373ffffffffffffffffffffffffffffffffffffffff1673ffffffffffffffffffffffffffffffffffffffff168152602001908152602001600020805490506007600083815260200190815260200160002081905550600660008373ffffffffffffffffffffffffffffffffffffffff1673ffffffffffffffffffffffffffffffffffffffff1681526020019081526020016000208190806001815401808255809150506001900390600052602060002001600090919091909150555050565b6000806002600084815260200190815260200160002060009054906101000a900473ffffffffffffffffffffffffffffffffffffffff169050600073ffffffffffffffffffffffffffffffffffffffff168173ffffffffffffffffffffffffffffffffffffffff161415915050919050565b828054610c45906110da565b90600052602060002090601f016020900481019282610c675760008555610cae565b82601f10610c8057805160ff1916838001178555610cae565b82800160010185558215610cae579182015b82811115610cad578251825591602001919060010190610c92565b5b509050610cbb9190610cbf565b5090565b5b80821115610cd8576000816000905550600101610cc0565b5090565b6000604051905090565b600080fd5b600080fd5b6000819050919050565b610d0381610cf0565b8114610d0e57600080fd5b50565b600081359050610d2081610cfa565b92915050565b600060208284031215610d3c57610d3b610ce6565b5b6000610d4a84828501610d11565b91505092915050565b600081519050919050565b600082825260208201905092915050565b60005b83811015610d8d578082015181840152602081019050610d72565b83811115610d9c576000848401525b50505050565b6000601f19601f8301169050919050565b6000610dbe82610d53565b610dc88185610d5e565b9350610dd8818560208601610d6f565b610de181610da2565b840191505092915050565b60006020820190508181036000830152610e068184610db3565b905092915050565b610e1781610cf0565b82525050565b6000602082019050610e326000830184610e0e565b92915050565b600073ffffffffffffffffffffffffffffffffffffffff82169050919050565b6000610e6382610e38565b9050919050565b610e7381610e58565b8114610e7e57600080fd5b50565b600081359050610e9081610e6a565b92915050565b60008060408385031215610ead57610eac610ce6565b5b6000610ebb85828601610e81565b9250506020610ecc85828601610d11565b9150509250929050565b610edf81610e58565b82525050565b6000602082019050610efa6000830184610ed6565b92915050565b600060208284031215610f1657610f15610ce6565b5b6000610f2484828501610e81565b91505092915050565b600080fd5b600080fd5b7f4e487b7100000000000000000000000000000000000000000000000000000000600052604160045260246000fd5b610f6f82610da2565b810181811067ffffffffffffffff82111715610f8e57610f8d610f37565b5b80604052505050565b6000610fa1610cdc565b9050610fad8282610f66565b919050565b600067ffffffffffffffff821115610fcd57610fcc610f37565b5b610fd682610da2565b9050602081019050919050565b82818337600083830152505050565b600061100561100084610fb2565b610f97565b90508281526020810184848401111561102157611020610f32565b5b61102c848285610fe3565b509392505050565b600082601f83011261104957611048610f2d565b5b8135611059848260208601610ff2565b91505092915050565b60006020828403121561107857611077610ce6565b5b600082013567ffffffffffffffff81111561109657611095610ceb565b5b6110a284828501611034565b91505092915050565b7f4e487b7100000000000000000000000000000000000000000000000000000000600052602260045260246000fd5b600060028204905060018216806110f257607f821691505b60208210811415611106576111056110ab565b5b50919050565b7f676c6f62616c20696e646578206973206f7574206f6620626f756e6400000000600082015250565b6000611142601c83610d5e565b915061114d8261110c565b602082019050919050565b6000602082019050818103600083015261117181611135565b9050919050565b7f4e487b7100000000000000000000000000000000000000000000000000000000600052603260045260246000fd5b7f476c6f62616c20696e646578206973206f7574206f6620626f756e6400000000600082015250565b60006111dd601c83610d5e565b91506111e8826111a7565b602082019050919050565b6000602082019050818103600083015261120c816111d0565b9050919050565b7f4552433732313a206f776e657220717565727920666f72206e6f6e657869737460008201527f656e7420746f6b656e0000000000000000000000000000000000000000000000602082015250565b600061126f602983610d5e565b915061127a82611213565b604082019050919050565b6000602082019050818103600083015261129e81611262565b9050919050565b7f4552433732313a2062616c616e636520717565727920666f7220746865207a6560008201527f726f206164647265737300000000000000000000000000000000000000000000602082015250565b6000611301602a83610d5e565b915061130c826112a5565b604082019050919050565b60006020820190508181036000830152611330816112f4565b9050919050565b600081905092915050565b600061134d82610d53565b6113578185611337565b9350611367818560208601610d6f565b80840191505092915050565b600061137f8284611342565b915081905092915050565b7f4572726f72202d204b727970746f426972647a20657869737473202100000000600082015250565b60006113c0601c83610d5e565b91506113cb8261138a565b602082019050919050565b600060208201905081810360008301526113ef816113b3565b9050919050565b7f4e487b7100000000000000000000000000000000000000000000000000000000600052601160045260246000fd5b600061143082610cf0565b915061143b83610cf0565b92508282101561144e5761144d6113f6565b5b828203905092915050565b7f455243373231206d696e74696e6720746f203020616464726573730000000000600082015250565b600061148f601b83610d5e565b915061149a82611459565b602082019050919050565b600060208201905081810360008301526114be81611482565b9050919050565b7f45524337323120616c7265616479206d696e7465640000000000000000000000600082015250565b60006114fb601583610d5e565b9150611506826114c5565b602082019050919050565b6000602082019050818103600083015261152a816114ee565b9050919050565b600061153c82610cf0565b915061154783610cf0565b9250827fffffffffffffffffffffffffffffffffffffffffffffffffffffffffffffffff0382111561157c5761157b6113f6565b5b82820190509291505056fea264697066735822122058439af834846e9ec018fc82c38f3ad8a295497416464372426cee345d5efd5e64736f6c634300080a0033",
  "immutableReferences": {},
  "source": "// SPDX-License-Identifier: MIT\r\npragma solidity ^0.8.0;\r\n\r\nimport './ERC721Connector.sol';\r\n\r\ncontract KryptoBirdz is ERC721Connector {\r\n    string public tokenName = 'KryptoBirdz';\r\n    string public tokenSymbol = 'KBIRDZ';\r\n\r\n    //Array to store our NFTs\r\n    string [] public kryptoBird; \r\n\r\n    mapping(string => bool) _kbExist; //string is HTML of image\r\n\r\n    function mint(string memory _kb) public {\r\n\r\n        require(!_kbExist[_kb], \"Error - KryptoBirdz exists !\");\r\n        \r\n        kryptoBird.push(_kb);               // Push KryptoBird into Array\r\n        uint _id = kryptoBird.length -1;    // Position in Array\r\n\r\n        _mint(msg.sender, _id);             // mint from ERC721.sol Function\r\n\r\n        _kbExist[_kb] = true;\r\n    }\r\n\r\n    constructor () ERC721Connector(tokenName,tokenSymbol) { \r\n    }\r\n}\r\n",
  "sourcePath": "C:\\Users\\Admin\\Documents\\GitHub\\nft-marketplace-starter-kit\\truffle\\src\\contracts\\KryptoBirdz.sol",
  "compiler": {
    "name": "solc",
    "version": "0.8.10+commit.fc410830.Emscripten.clang"
  },
  "schemaVersion": "3.4.3",
  "updatedAt": "2021-12-07T12:10:35.642Z",
  "networkType": "ethereum",
  "devdoc": {
    "kind": "dev",
    "methods": {
      "totalSupply()": {
        "returns": {
          "_0": "A count of valid NFTs tracked by this contract, where each one of  them has an assigned and queryable owner not equal to the zero address"
        }
      }
    },
    "version": 1
  },
  "userdoc": {
    "kind": "user",
    "methods": {
      "totalSupply()": {
        "notice": "Count NFTs tracked by this contract"
      }
    },
    "version": 1
  }
}