{
  "contractName": "KryptoBirdz",
  "abi": [
    {
      "inputs": [],
      "stateMutability": "nonpayable",
      "type": "constructor"
    },
    {
      "anonymous": false,
      "inputs": [
        {
          "indexed": true,
          "internalType": "address",
          "name": "_owner",
          "type": "address"
        },
        {
          "indexed": true,
          "internalType": "address",
          "name": "_approved",
          "type": "address"
        },
        {
          "indexed": true,
          "internalType": "uint256",
          "name": "_tokenId",
          "type": "uint256"
        }
      ],
      "name": "Approval",
      "type": "event"
    },
    {
      "anonymous": false,
      "inputs": [
        {
          "indexed": true,
          "internalType": "address",
          "name": "_owner",
          "type": "address"
        },
        {
          "indexed": true,
          "internalType": "address",
          "name": "_operator",
          "type": "address"
        },
        {
          "indexed": false,
          "internalType": "bool",
          "name": "_approved",
          "type": "bool"
        }
      ],
      "name": "ApprovalForAll",
      "type": "event"
    },
    {
      "anonymous": false,
      "inputs": [
        {
          "indexed": true,
          "internalType": "address",
          "name": "_from",
          "type": "address"
        },
        {
          "indexed": true,
          "internalType": "address",
          "name": "_to",
          "type": "address"
        },
        {
          "indexed": true,
          "internalType": "uint256",
          "name": "_tokenId",
          "type": "uint256"
        }
      ],
      "name": "Transfer",
      "type": "event"
    },
    {
      "inputs": [
        {
          "internalType": "address",
          "name": "to",
          "type": "address"
        },
        {
          "internalType": "uint256",
          "name": "tokenId",
          "type": "uint256"
        }
      ],
      "name": "approve",
      "outputs": [],
      "stateMutability": "nonpayable",
      "type": "function"
    },
    {
      "inputs": [
        {
          "internalType": "address",
          "name": "_owner",
          "type": "address"
        }
      ],
      "name": "balanceOf",
      "outputs": [
        {
          "internalType": "uint256",
          "name": "",
          "type": "uint256"
        }
      ],
      "stateMutability": "view",
      "type": "function"
    },
    {
      "inputs": [
        {
          "internalType": "uint256",
          "name": "tokenId",
          "type": "uint256"
        }
      ],
      "name": "getApproved",
      "outputs": [
        {
          "internalType": "address",
          "name": "",
          "type": "address"
        }
      ],
      "stateMutability": "view",
      "type": "function"
    },
    {
      "inputs": [
        {
          "internalType": "address",
          "name": "owner",
          "type": "address"
        },
        {
          "internalType": "address",
          "name": "operator",
          "type": "address"
        }
      ],
      "name": "isApprovedForAll",
      "outputs": [
        {
          "internalType": "bool",
          "name": "",
          "type": "bool"
        }
      ],
      "stateMutability": "view",
      "type": "function"
    },
    {
      "inputs": [
        {
          "internalType": "uint256",
          "name": "",
          "type": "uint256"
        }
      ],
      "name": "kryptoBird",
      "outputs": [
        {
          "internalType": "string",
          "name": "",
          "type": "string"
        }
      ],
      "stateMutability": "view",
      "type": "function"
    },
    {
      "inputs": [],
      "name": "name",
      "outputs": [
        {
          "internalType": "string",
          "name": "",
          "type": "string"
        }
      ],
      "stateMutability": "view",
      "type": "function"
    },
    {
      "inputs": [
        {
          "internalType": "uint256",
          "name": "_tokenId",
          "type": "uint256"
        }
      ],
      "name": "ownerOf",
      "outputs": [
        {
          "internalType": "address",
          "name": "",
          "type": "address"
        }
      ],
      "stateMutability": "view",
      "type": "function"
    },
    {
      "inputs": [
        {
          "internalType": "address",
          "name": "from",
          "type": "address"
        },
        {
          "internalType": "address",
          "name": "to",
          "type": "address"
        },
        {
          "internalType": "uint256",
          "name": "tokenId",
          "type": "uint256"
        }
      ],
      "name": "safeTransferFrom",
      "outputs": [],
      "stateMutability": "nonpayable",
      "type": "function"
    },
    {
      "inputs": [
        {
          "internalType": "address",
          "name": "from",
          "type": "address"
        },
        {
          "internalType": "address",
          "name": "to",
          "type": "address"
        },
        {
          "internalType": "uint256",
          "name": "tokenId",
          "type": "uint256"
        },
        {
          "internalType": "bytes",
          "name": "_data",
          "type": "bytes"
        }
      ],
      "name": "safeTransferFrom",
      "outputs": [],
      "stateMutability": "nonpayable",
      "type": "function"
    },
    {
      "inputs": [
        {
          "internalType": "address",
          "name": "operator",
          "type": "address"
        },
        {
          "internalType": "bool",
          "name": "approved",
          "type": "bool"
        }
      ],
      "name": "setApprovalForAll",
      "outputs": [],
      "stateMutability": "nonpayable",
      "type": "function"
    },
    {
      "inputs": [
        {
          "internalType": "bytes4",
          "name": "interfaceId",
          "type": "bytes4"
        }
      ],
      "name": "supportsInterface",
      "outputs": [
        {
          "internalType": "bool",
          "name": "",
          "type": "bool"
        }
      ],
      "stateMutability": "view",
      "type": "function"
    },
    {
      "inputs": [],
      "name": "symbol",
      "outputs": [
        {
          "internalType": "string",
          "name": "",
          "type": "string"
        }
      ],
      "stateMutability": "view",
      "type": "function"
    },
    {
      "inputs": [
        {
          "internalType": "uint256",
          "name": "_index",
          "type": "uint256"
        }
      ],
      "name": "tokenByIndex",
      "outputs": [
        {
          "internalType": "uint256",
          "name": "",
          "type": "uint256"
        }
      ],
      "stateMutability": "view",
      "type": "function"
    },
    {
      "inputs": [],
      "name": "tokenName",
      "outputs": [
        {
          "internalType": "string",
          "name": "",
          "type": "string"
        }
      ],
      "stateMutability": "view",
      "type": "function"
    },
    {
      "inputs": [
        {
          "internalType": "address",
          "name": "_owner",
          "type": "address"
        },
        {
          "internalType": "uint256",
          "name": "_index",
          "type": "uint256"
        }
      ],
      "name": "tokenOfOwnerByIndex",
      "outputs": [
        {
          "internalType": "uint256",
          "name": "",
          "type": "uint256"
        }
      ],
      "stateMutability": "view",
      "type": "function"
    },
    {
      "inputs": [],
      "name": "tokenSymbol",
      "outputs": [
        {
          "internalType": "string",
          "name": "",
          "type": "string"
        }
      ],
      "stateMutability": "view",
      "type": "function"
    },
    {
      "inputs": [],
      "name": "totalSupply",
      "outputs": [
        {
          "internalType": "uint256",
          "name": "",
          "type": "uint256"
        }
      ],
      "stateMutability": "view",
      "type": "function"
    },
    {
      "inputs": [
        {
          "internalType": "address",
          "name": "from",
          "type": "address"
        },
        {
          "internalType": "address",
          "name": "to",
          "type": "address"
        },
        {
          "internalType": "uint256",
          "name": "tokenId",
          "type": "uint256"
        }
      ],
      "name": "transferFrom",
      "outputs": [],
      "stateMutability": "nonpayable",
      "type": "function"
    },
    {
      "inputs": [
        {
          "internalType": "string",
          "name": "_kb",
          "type": "string"
        }
      ],
      "name": "mint",
      "outputs": [],
      "stateMutability": "nonpayable",
      "type": "function"
    }
  ],
  "bytecode": "0x60806040526040518060400160405280600b81526020017f4b727970746f426972647a000000000000000000000000000000000000000000815250600b90805190602001906200005192919062000504565b506040518060400160405280600681526020017f4b424952445a0000000000000000000000000000000000000000000000000000815250600c90805190602001906200009f92919062000504565b50348015620000ad57600080fd5b50600b8054620000bd90620005e3565b80601f0160208091040260200160405190810160405280929190818152602001828054620000eb90620005e3565b80156200013c5780601f1062000110576101008083540402835291602001916200013c565b820191906000526020600020905b8154815290600101906020018083116200011e57829003601f168201915b5050505050600c80546200015090620005e3565b80601f01602080910402602001604051908101604052809291908181526020018280546200017e90620005e3565b8015620001cf5780601f10620001a357610100808354040283529160200191620001cf565b820191906000526020600020905b815481529060010190602001808311620001b157829003601f168201915b50505050508181620002077f01ffc9a7a5cef8baa21ed3c5c0d7e23accb804b619e9333b597f47a0d84076e26200042c60201b60201c565b6200025a7f13b182f4c0e5b2efbac0efe6cf6d756c8b89f4b79c5707a043ed9ea740574ee97f7feaf19471f34a12a7eaf32d5f3090aa2260ea8624dc8a138e74e0bf0f623076186200042c60201b60201c565b81600190805190602001906200027292919062000504565b5080600290805190602001906200028b92919062000504565b505050620003af7f1cf138a85b0e62e7e98a8302d9c9eb9460c8ba52e5da3c28daff2b626089dd8d807fe0c9b09697cad3aa3f2bcb7fdd781becaefa478990b24e83d3bfdb65623d77537f5af227006b8981efabb10af200ab71f08976cbce54b4c59ae5c97811d19a398c7f90dba0bef8387ab29f95a1abead857c8ccc338f1038f6fa159fa78fd18aff9f77f8c51fd5fcf1f456ec4eb0f32f68d83471264fe082fac12bcbfd2fa4be9eed6c77f22c82707ba960a14c7592ffb6b8cfaa073fed0048a84cc7fa41f6b5bd8e7f2e47f3a6eb71757dfc6e784c1459d26270140c2c147d95ca985c80026fc5301c3eca17f8a7e378434598edc36d108689a030cbc9d7d465de4f74c71bae1028eed6a881b18181818181818186200042c60201b60201c565b620004247f8230223f691b981717299fae9549350a0d894555723531f02108b1f522c1a7977f6da5e1284143cdd2d15038a59bde3be031250f00291d64494c12d967b3a4e0c37fc53637662700e6c65104059db8bba34439e0c32483ab7c34e3ccae52c739549518186200042c60201b60201c565b50506200069c565b63ffffffff60e01b817bffffffffffffffffffffffffffffffffffffffffffffffffffffffff1916141562000498576040517f08c379a00000000000000000000000000000000000000000000000000000000081526004016200048f906200067a565b60405180910390fd5b6001600080837bffffffffffffffffffffffffffffffffffffffffffffffffffffffff19167bffffffffffffffffffffffffffffffffffffffffffffffffffffffff1916815260200190815260200160002060006101000a81548160ff02191690831515021790555050565b8280546200051290620005e3565b90600052602060002090601f01602090048101928262000536576000855562000582565b82601f106200055157805160ff191683800117855562000582565b8280016001018555821562000582579182015b828111156200058157825182559160200191906001019062000564565b5b50905062000591919062000595565b5090565b5b80821115620005b057600081600090555060010162000596565b5090565b7f4e487b7100000000000000000000000000000000000000000000000000000000600052602260045260246000fd5b60006002820490506001821680620005fc57607f821691505b60208210811415620006135762000612620005b4565b5b50919050565b600082825260208201905092915050565b7f4552433136353a20496e76616c696420496e7465726661636500000000000000600082015250565b60006200066260198362000619565b91506200066f826200062a565b602082019050919050565b60006020820190508181036000830152620006958162000653565b9050919050565b612ac080620006ac6000396000f3fe608060405234801561001057600080fd5b50600436106101215760003560e01c80634f6ccce7116100ad57806395d89b411161007157806395d89b4114610342578063a22cb46514610360578063b88d4fde1461037c578063d85d3d2714610398578063e985e9c5146103b457610121565b80634f6ccce7146102765780636352211e146102a65780636c02a931146102d657806370a08231146102f45780637b61c3201461032457610121565b8063095ea7b3116100f4578063095ea7b3146101d457806318160ddd146101f057806323b872dd1461020e5780632f745c591461022a57806342842e0e1461025a57610121565b806301ffc9a714610126578063057e4ee61461015657806306fdde0314610186578063081812fc146101a4575b600080fd5b610140600480360381019061013b919061198e565b6103e4565b60405161014d91906119d6565b60405180910390f35b610170600480360381019061016b9190611a27565b61044b565b60405161017d9190611aed565b60405180910390f35b61018e6104f7565b60405161019b9190611aed565b60405180910390f35b6101be60048036038101906101b99190611a27565b610589565b6040516101cb9190611b50565b60405180910390f35b6101ee60048036038101906101e99190611b97565b61060e565b005b6101f8610718565b6040516102059190611be6565b60405180910390f35b61022860048036038101906102239190611c01565b610725565b005b610244600480360381019061023f9190611b97565b61077e565b6040516102519190611be6565b60405180910390f35b610274600480360381019061026f9190611c01565b61082e565b005b610290600480360381019061028b9190611a27565b61084e565b60405161029d9190611be6565b60405180910390f35b6102c060048036038101906102bb9190611a27565b6108bf565b6040516102cd9190611b50565b60405180910390f35b6102de610971565b6040516102eb9190611aed565b60405180910390f35b61030e60048036038101906103099190611c54565b6109ff565b60405161031b9190611be6565b60405180910390f35b61032c610ab7565b6040516103399190611aed565b60405180910390f35b61034a610b45565b6040516103579190611aed565b60405180910390f35b61037a60048036038101906103759190611cad565b610bd7565b005b61039660048036038101906103919190611e22565b610d43565b005b6103b260048036038101906103ad9190611f46565b610d9e565b005b6103ce60048036038101906103c99190611f8f565b610ea1565b6040516103db91906119d6565b60405180910390f35b6000806000837bffffffffffffffffffffffffffffffffffffffffffffffffffffffff19167bffffffffffffffffffffffffffffffffffffffffffffffffffffffff1916815260200190815260200160002060009054906101000a900460ff169050919050565b600d818154811061045b57600080fd5b90600052602060002001600091509050805461047690611ffe565b80601f01602080910402602001604051908101604052809291908181526020018280546104a290611ffe565b80156104ef5780601f106104c4576101008083540402835291602001916104ef565b820191906000526020600020905b8154815290600101906020018083116104d257829003601f168201915b505050505081565b60606001805461050690611ffe565b80601f016020809104026020016040519081016040528092919081815260200182805461053290611ffe565b801561057f5780601f106105545761010080835404028352916020019161057f565b820191906000526020600020905b81548152906001019060200180831161056257829003601f168201915b5050505050905090565b600061059482610f35565b6105d3576040517f08c379a00000000000000000000000000000000000000000000000000000000081526004016105ca906120a2565b60405180910390fd5b6005600083815260200190815260200160002060009054906101000a900473ffffffffffffffffffffffffffffffffffffffff169050919050565b6000610619826108bf565b90508073ffffffffffffffffffffffffffffffffffffffff168373ffffffffffffffffffffffffffffffffffffffff16141561068a576040517f08c379a000000000000000000000000000000000000000000000000000000000815260040161068190612134565b60405180910390fd5b8073ffffffffffffffffffffffffffffffffffffffff163373ffffffffffffffffffffffffffffffffffffffff1614806106ca57506106c98133610ea1565b5b610709576040517f08c379a0000000000000000000000000000000000000000000000000000000008152600401610700906121c6565b60405180910390fd5b6107138383610fa7565b505050565b6000600780549050905090565b61072f3382611060565b61076e576040517f08c379a000000000000000000000000000000000000000000000000000000000815260040161076590612258565b60405180910390fd5b61077983838361113e565b505050565b6000610789836109ff565b82106107ca576040517f08c379a00000000000000000000000000000000000000000000000000000000081526004016107c1906122c4565b60405180910390fd5b600960008473ffffffffffffffffffffffffffffffffffffffff1673ffffffffffffffffffffffffffffffffffffffff168152602001908152602001600020828154811061081b5761081a6122e4565b5b9060005260206000200154905092915050565b61084983838360405180602001604052806000815250610d43565b505050565b6000610858610718565b8210610899576040517f08c379a00000000000000000000000000000000000000000000000000000000081526004016108909061235f565b60405180910390fd5b600782815481106108ad576108ac6122e4565b5b90600052602060002001549050919050565b6000806003600084815260200190815260200160002060009054906101000a900473ffffffffffffffffffffffffffffffffffffffff169050600073ffffffffffffffffffffffffffffffffffffffff168173ffffffffffffffffffffffffffffffffffffffff161415610968576040517f08c379a000000000000000000000000000000000000000000000000000000000815260040161095f906123f1565b60405180910390fd5b80915050919050565b600b805461097e90611ffe565b80601f01602080910402602001604051908101604052809291908181526020018280546109aa90611ffe565b80156109f75780601f106109cc576101008083540402835291602001916109f7565b820191906000526020600020905b8154815290600101906020018083116109da57829003601f168201915b505050505081565b60008073ffffffffffffffffffffffffffffffffffffffff168273ffffffffffffffffffffffffffffffffffffffff161415610a70576040517f08c379a0000000000000000000000000000000000000000000000000000000008152600401610a6790612483565b60405180910390fd5b600460008373ffffffffffffffffffffffffffffffffffffffff1673ffffffffffffffffffffffffffffffffffffffff168152602001908152602001600020549050919050565b600c8054610ac490611ffe565b80601f0160208091040260200160405190810160405280929190818152602001828054610af090611ffe565b8015610b3d5780601f10610b1257610100808354040283529160200191610b3d565b820191906000526020600020905b815481529060010190602001808311610b2057829003601f168201915b505050505081565b606060028054610b5490611ffe565b80601f0160208091040260200160405190810160405280929190818152602001828054610b8090611ffe565b8015610bcd5780601f10610ba257610100808354040283529160200191610bcd565b820191906000526020600020905b815481529060010190602001808311610bb057829003601f168201915b5050505050905090565b3373ffffffffffffffffffffffffffffffffffffffff168273ffffffffffffffffffffffffffffffffffffffff161415610c46576040517f08c379a0000000000000000000000000000000000000000000000000000000008152600401610c3d906124ef565b60405180910390fd5b80600660003373ffffffffffffffffffffffffffffffffffffffff1673ffffffffffffffffffffffffffffffffffffffff16815260200190815260200160002060008473ffffffffffffffffffffffffffffffffffffffff1673ffffffffffffffffffffffffffffffffffffffff16815260200190815260200160002060006101000a81548160ff0219169083151502179055508173ffffffffffffffffffffffffffffffffffffffff163373ffffffffffffffffffffffffffffffffffffffff167f17307eab39ab6107e8899845ad3d59bd9653f200f220920489ca2b5937696c3183604051610d3791906119d6565b60405180910390a35050565b610d4d3383611060565b610d8c576040517f08c379a0000000000000000000000000000000000000000000000000000000008152600401610d8390612258565b60405180910390fd5b610d988484848461139a565b50505050565b600e81604051610dae919061254b565b908152602001604051809103902060009054906101000a900460ff1615610e0a576040517f08c379a0000000000000000000000000000000000000000000000000000000008152600401610e01906125ae565b60405180910390fd5b600d81908060018154018082558091505060019003906000526020600020016000909190919091509080519060200190610e4592919061187f565b5060006001600d80549050610e5a91906125fd565b9050610e6633826113f6565b6001600e83604051610e78919061254b565b908152602001604051809103902060006101000a81548160ff0219169083151502179055505050565b6000600660008473ffffffffffffffffffffffffffffffffffffffff1673ffffffffffffffffffffffffffffffffffffffff16815260200190815260200160002060008373ffffffffffffffffffffffffffffffffffffffff1673ffffffffffffffffffffffffffffffffffffffff16815260200190815260200160002060009054906101000a900460ff16905092915050565b6000806003600084815260200190815260200160002060009054906101000a900473ffffffffffffffffffffffffffffffffffffffff169050600073ffffffffffffffffffffffffffffffffffffffff168173ffffffffffffffffffffffffffffffffffffffff161415915050919050565b816005600083815260200190815260200160002060006101000a81548173ffffffffffffffffffffffffffffffffffffffff021916908373ffffffffffffffffffffffffffffffffffffffff160217905550808273ffffffffffffffffffffffffffffffffffffffff1661101a836108bf565b73ffffffffffffffffffffffffffffffffffffffff167f8c5be1e5ebec7d5bd14f71427d1e84f3dd0314c0f7b2291e5b200ac8c7c3b92560405160405180910390a45050565b600061106b82610f35565b6110aa576040517f08c379a00000000000000000000000000000000000000000000000000000000081526004016110a1906126a3565b60405180910390fd5b60006110b5836108bf565b90508073ffffffffffffffffffffffffffffffffffffffff168473ffffffffffffffffffffffffffffffffffffffff16148061112457508373ffffffffffffffffffffffffffffffffffffffff1661110c84610589565b73ffffffffffffffffffffffffffffffffffffffff16145b8061113557506111348185610ea1565b5b91505092915050565b8273ffffffffffffffffffffffffffffffffffffffff1661115e826108bf565b73ffffffffffffffffffffffffffffffffffffffff16146111b4576040517f08c379a00000000000000000000000000000000000000000000000000000000081526004016111ab90612735565b60405180910390fd5b600073ffffffffffffffffffffffffffffffffffffffff168273ffffffffffffffffffffffffffffffffffffffff161415611224576040517f08c379a000000000000000000000000000000000000000000000000000000000815260040161121b906127c7565b60405180910390fd5b61122f838383611417565b61123a600082610fa7565b6001600460008573ffffffffffffffffffffffffffffffffffffffff1673ffffffffffffffffffffffffffffffffffffffff168152602001908152602001600020600082825461128a91906125fd565b925050819055506001600460008473ffffffffffffffffffffffffffffffffffffffff1673ffffffffffffffffffffffffffffffffffffffff16815260200190815260200160002060008282546112e191906127e7565b92505081905550816003600083815260200190815260200160002060006101000a81548173ffffffffffffffffffffffffffffffffffffffff021916908373ffffffffffffffffffffffffffffffffffffffff160217905550808273ffffffffffffffffffffffffffffffffffffffff168473ffffffffffffffffffffffffffffffffffffffff167fddf252ad1be2c89b69c2b068fc378daa952ba7f163c4a11628f55a4df523b3ef60405160405180910390a4505050565b6113a584848461113e565b6113b18484848461141c565b6113f0576040517f08c379a00000000000000000000000000000000000000000000000000000000081526004016113e7906128af565b60405180910390fd5b50505050565b611400828261159d565b6114098161175f565b61141382826117a8565b5050565b505050565b600061143d8473ffffffffffffffffffffffffffffffffffffffff1661186c565b15611590578373ffffffffffffffffffffffffffffffffffffffff1663150b7a02338786866040518563ffffffff1660e01b81526004016114819493929190612924565b6020604051808303816000875af19250505080156114bd57506040513d601f19601f820116820180604052508101906114ba9190612985565b60015b611540573d80600081146114ed576040519150601f19603f3d011682016040523d82523d6000602084013e6114f2565b606091505b50600081511415611538576040517f08c379a000000000000000000000000000000000000000000000000000000000815260040161152f906128af565b60405180910390fd5b805181602001fd5b63150b7a0260e01b7bffffffffffffffffffffffffffffffffffffffffffffffffffffffff1916817bffffffffffffffffffffffffffffffffffffffffffffffffffffffff191614915050611595565b600190505b949350505050565b600073ffffffffffffffffffffffffffffffffffffffff168273ffffffffffffffffffffffffffffffffffffffff16141561160d576040517f08c379a0000000000000000000000000000000000000000000000000000000008152600401611604906129fe565b60405180910390fd5b61161681610f35565b15611656576040517f08c379a000000000000000000000000000000000000000000000000000000000815260040161164d90612a6a565b60405180910390fd5b816003600083815260200190815260200160002060006101000a81548173ffffffffffffffffffffffffffffffffffffffff021916908373ffffffffffffffffffffffffffffffffffffffff1602179055506001600460008473ffffffffffffffffffffffffffffffffffffffff1673ffffffffffffffffffffffffffffffffffffffff16815260200190815260200160002060008282546116f891906127e7565b92505081905550808273ffffffffffffffffffffffffffffffffffffffff16600073ffffffffffffffffffffffffffffffffffffffff167fddf252ad1be2c89b69c2b068fc378daa952ba7f163c4a11628f55a4df523b3ef60405160405180910390a45050565b6007805490506008600083815260200190815260200160002081905550600781908060018154018082558091505060019003906000526020600020016000909190919091505550565b600960008373ffffffffffffffffffffffffffffffffffffffff1673ffffffffffffffffffffffffffffffffffffffff16815260200190815260200160002080549050600a600083815260200190815260200160002081905550600960008373ffffffffffffffffffffffffffffffffffffffff1673ffffffffffffffffffffffffffffffffffffffff1681526020019081526020016000208190806001815401808255809150506001900390600052602060002001600090919091909150555050565b600080823b905060008111915050919050565b82805461188b90611ffe565b90600052602060002090601f0160209004810192826118ad57600085556118f4565b82601f106118c657805160ff19168380011785556118f4565b828001600101855582156118f4579182015b828111156118f35782518255916020019190600101906118d8565b5b5090506119019190611905565b5090565b5b8082111561191e576000816000905550600101611906565b5090565b6000604051905090565b600080fd5b600080fd5b60007fffffffff0000000000000000000000000000000000000000000000000000000082169050919050565b61196b81611936565b811461197657600080fd5b50565b60008135905061198881611962565b92915050565b6000602082840312156119a4576119a361192c565b5b60006119b284828501611979565b91505092915050565b60008115159050919050565b6119d0816119bb565b82525050565b60006020820190506119eb60008301846119c7565b92915050565b6000819050919050565b611a04816119f1565b8114611a0f57600080fd5b50565b600081359050611a21816119fb565b92915050565b600060208284031215611a3d57611a3c61192c565b5b6000611a4b84828501611a12565b91505092915050565b600081519050919050565b600082825260208201905092915050565b60005b83811015611a8e578082015181840152602081019050611a73565b83811115611a9d576000848401525b50505050565b6000601f19601f8301169050919050565b6000611abf82611a54565b611ac98185611a5f565b9350611ad9818560208601611a70565b611ae281611aa3565b840191505092915050565b60006020820190508181036000830152611b078184611ab4565b905092915050565b600073ffffffffffffffffffffffffffffffffffffffff82169050919050565b6000611b3a82611b0f565b9050919050565b611b4a81611b2f565b82525050565b6000602082019050611b656000830184611b41565b92915050565b611b7481611b2f565b8114611b7f57600080fd5b50565b600081359050611b9181611b6b565b92915050565b60008060408385031215611bae57611bad61192c565b5b6000611bbc85828601611b82565b9250506020611bcd85828601611a12565b9150509250929050565b611be0816119f1565b82525050565b6000602082019050611bfb6000830184611bd7565b92915050565b600080600060608486031215611c1a57611c1961192c565b5b6000611c2886828701611b82565b9350506020611c3986828701611b82565b9250506040611c4a86828701611a12565b9150509250925092565b600060208284031215611c6a57611c6961192c565b5b6000611c7884828501611b82565b91505092915050565b611c8a816119bb565b8114611c9557600080fd5b50565b600081359050611ca781611c81565b92915050565b60008060408385031215611cc457611cc361192c565b5b6000611cd285828601611b82565b9250506020611ce385828601611c98565b9150509250929050565b600080fd5b600080fd5b7f4e487b7100000000000000000000000000000000000000000000000000000000600052604160045260246000fd5b611d2f82611aa3565b810181811067ffffffffffffffff82111715611d4e57611d4d611cf7565b5b80604052505050565b6000611d61611922565b9050611d6d8282611d26565b919050565b600067ffffffffffffffff821115611d8d57611d8c611cf7565b5b611d9682611aa3565b9050602081019050919050565b82818337600083830152505050565b6000611dc5611dc084611d72565b611d57565b905082815260208101848484011115611de157611de0611cf2565b5b611dec848285611da3565b509392505050565b600082601f830112611e0957611e08611ced565b5b8135611e19848260208601611db2565b91505092915050565b60008060008060808587031215611e3c57611e3b61192c565b5b6000611e4a87828801611b82565b9450506020611e5b87828801611b82565b9350506040611e6c87828801611a12565b925050606085013567ffffffffffffffff811115611e8d57611e8c611931565b5b611e9987828801611df4565b91505092959194509250565b600067ffffffffffffffff821115611ec057611ebf611cf7565b5b611ec982611aa3565b9050602081019050919050565b6000611ee9611ee484611ea5565b611d57565b905082815260208101848484011115611f0557611f04611cf2565b5b611f10848285611da3565b509392505050565b600082601f830112611f2d57611f2c611ced565b5b8135611f3d848260208601611ed6565b91505092915050565b600060208284031215611f5c57611f5b61192c565b5b600082013567ffffffffffffffff811115611f7a57611f79611931565b5b611f8684828501611f18565b91505092915050565b60008060408385031215611fa657611fa561192c565b5b6000611fb485828601611b82565b9250506020611fc585828601611b82565b9150509250929050565b7f4e487b7100000000000000000000000000000000000000000000000000000000600052602260045260246000fd5b6000600282049050600182168061201657607f821691505b6020821081141561202a57612029611fcf565b5b50919050565b7f4552433732313a20617070726f76656420717565727920666f72206e6f6e657860008201527f697374656e7420746f6b656e0000000000000000000000000000000000000000602082015250565b600061208c602c83611a5f565b915061209782612030565b604082019050919050565b600060208201905081810360008301526120bb8161207f565b9050919050565b7f4552433732313a20617070726f76616c20746f2063757272656e74206f776e6560008201527f7200000000000000000000000000000000000000000000000000000000000000602082015250565b600061211e602183611a5f565b9150612129826120c2565b604082019050919050565b6000602082019050818103600083015261214d81612111565b9050919050565b7f4552433732313a20617070726f76652063616c6c6572206973206e6f74206f7760008201527f6e6572206e6f7220617070726f76656420666f7220616c6c0000000000000000602082015250565b60006121b0603883611a5f565b91506121bb82612154565b604082019050919050565b600060208201905081810360008301526121df816121a3565b9050919050565b7f4552433732313a207472616e736665722063616c6c6572206973206e6f74206f60008201527f776e6572206e6f7220617070726f766564000000000000000000000000000000602082015250565b6000612242603183611a5f565b915061224d826121e6565b604082019050919050565b6000602082019050818103600083015261227181612235565b9050919050565b7f676c6f62616c20696e646578206973206f7574206f6620626f756e6400000000600082015250565b60006122ae601c83611a5f565b91506122b982612278565b602082019050919050565b600060208201905081810360008301526122dd816122a1565b9050919050565b7f4e487b7100000000000000000000000000000000000000000000000000000000600052603260045260246000fd5b7f476c6f62616c20696e646578206973206f7574206f6620626f756e6400000000600082015250565b6000612349601c83611a5f565b915061235482612313565b602082019050919050565b600060208201905081810360008301526123788161233c565b9050919050565b7f4552433732313a206f776e657220717565727920666f72206e6f6e657869737460008201527f656e7420746f6b656e0000000000000000000000000000000000000000000000602082015250565b60006123db602983611a5f565b91506123e68261237f565b604082019050919050565b6000602082019050818103600083015261240a816123ce565b9050919050565b7f4552433732313a2062616c616e636520717565727920666f7220746865207a6560008201527f726f206164647265737300000000000000000000000000000000000000000000602082015250565b600061246d602a83611a5f565b915061247882612411565b604082019050919050565b6000602082019050818103600083015261249c81612460565b9050919050565b7f4552433732313a20617070726f766520746f2063616c6c657200000000000000600082015250565b60006124d9601983611a5f565b91506124e4826124a3565b602082019050919050565b60006020820190508181036000830152612508816124cc565b9050919050565b600081905092915050565b600061252582611a54565b61252f818561250f565b935061253f818560208601611a70565b80840191505092915050565b6000612557828461251a565b915081905092915050565b7f4572726f72202d204b727970746f426972647a20657869737473202100000000600082015250565b6000612598601c83611a5f565b91506125a382612562565b602082019050919050565b600060208201905081810360008301526125c78161258b565b9050919050565b7f4e487b7100000000000000000000000000000000000000000000000000000000600052601160045260246000fd5b6000612608826119f1565b9150612613836119f1565b925082821015612626576126256125ce565b5b828203905092915050565b7f4552433732313a206f70657261746f7220717565727920666f72206e6f6e657860008201527f697374656e7420746f6b656e0000000000000000000000000000000000000000602082015250565b600061268d602c83611a5f565b915061269882612631565b604082019050919050565b600060208201905081810360008301526126bc81612680565b9050919050565b7f4552433732313a207472616e73666572206f6620746f6b656e2074686174206960008201527f73206e6f74206f776e0000000000000000000000000000000000000000000000602082015250565b600061271f602983611a5f565b915061272a826126c3565b604082019050919050565b6000602082019050818103600083015261274e81612712565b9050919050565b7f4552433732313a207472616e7366657220746f20746865207a65726f2061646460008201527f7265737300000000000000000000000000000000000000000000000000000000602082015250565b60006127b1602483611a5f565b91506127bc82612755565b604082019050919050565b600060208201905081810360008301526127e0816127a4565b9050919050565b60006127f2826119f1565b91506127fd836119f1565b9250827fffffffffffffffffffffffffffffffffffffffffffffffffffffffffffffffff03821115612832576128316125ce565b5b828201905092915050565b7f4552433732313a207472616e7366657220746f206e6f6e20455243373231526560008201527f63656976657220696d706c656d656e7465720000000000000000000000000000602082015250565b6000612899603283611a5f565b91506128a48261283d565b604082019050919050565b600060208201905081810360008301526128c88161288c565b9050919050565b600081519050919050565b600082825260208201905092915050565b60006128f6826128cf565b61290081856128da565b9350612910818560208601611a70565b61291981611aa3565b840191505092915050565b60006080820190506129396000830187611b41565b6129466020830186611b41565b6129536040830185611bd7565b818103606083015261296581846128eb565b905095945050505050565b60008151905061297f81611962565b92915050565b60006020828403121561299b5761299a61192c565b5b60006129a984828501612970565b91505092915050565b7f455243373231206d696e74696e6720746f203020616464726573730000000000600082015250565b60006129e8601b83611a5f565b91506129f3826129b2565b602082019050919050565b60006020820190508181036000830152612a17816129db565b9050919050565b7f45524337323120616c7265616479206d696e7465640000000000000000000000600082015250565b6000612a54601583611a5f565b9150612a5f82612a1e565b602082019050919050565b60006020820190508181036000830152612a8381612a47565b905091905056fea26469706673582212205c73c88beae6ce5b375341087e1f2ab6b52fd91a9005057aaca4a1f3dbd1c43164736f6c634300080a0033",
  "immutableReferences": {},
  "source": "// SPDX-License-Identifier: MIT\r\npragma solidity ^0.8.0;\r\n\r\nimport './ERC721Connector.sol';\r\n\r\ncontract KryptoBirdz is ERC721Connector {\r\n    string public tokenName = 'KryptoBirdz';\r\n    string public tokenSymbol = 'KBIRDZ';\r\n\r\n    //Array to store our NFTs\r\n    string [] public kryptoBird; \r\n\r\n    mapping(string => bool) _kbExist; //string is HTML of image\r\n\r\n    function mint(string memory _kb) public {\r\n\r\n        require(!_kbExist[_kb], \"Error - KryptoBirdz exists !\");\r\n        \r\n        kryptoBird.push(_kb);               // Push KryptoBird into Array\r\n        uint _id = kryptoBird.length -1;    // Position in Array\r\n\r\n        _mint(msg.sender, _id);             // mint from ERC721.sol Function\r\n\r\n        _kbExist[_kb] = true;\r\n    }\r\n\r\n    constructor () ERC721Connector(tokenName,tokenSymbol) { \r\n    }\r\n}\r\n",
  "sourcePath": "C:\\Users\\Admin\\Documents\\GitHub\\nft-marketplace-starter-kit\\truffle\\src\\contracts\\KryptoBirdz.sol",
  "compiler": {
    "name": "solc",
    "version": "0.8.10+commit.fc410830.Emscripten.clang"
  },
  "schemaVersion": "3.4.3",
  "updatedAt": "2021-12-08T14:00:53.770Z",
  "devdoc": {
    "kind": "dev",
    "methods": {
      "safeTransferFrom(address,address,uint256,bytes)": {
        "details": "See {IERC721-safeTransferFrom}."
      },
      "supportsInterface(bytes4)": {
        "details": "Returns true if this contract implements the interface defined by `interfaceId`. See the corresponding https://eips.ethereum.org/EIPS/eip-165#how-interfaces-are-identified[EIP section] to learn more about how these ids are created. This function call must use less than 30 000 gas."
      }
    },
    "version": 1
  },
  "userdoc": {
    "kind": "user",
    "methods": {},
    "version": 1
  }
}